:04000000803116280D
:100008007E14803120007F08F4000B1F11282E0079
:1000180019180F1C11288431FD2474082000FF00D2
:100028007E10090080311828403084008330850014
:1000380070308600233087000030FF008030853123
:10004800882580318531AD25F800F601F701DD01FD
:10005800DE01DF01E0017E1020008231592A2000F4
:10006800A1007508A0002008A2000230A000200806
:10007800A20522080319422817144628FE30A000BA
:10008800200897057508A0002008A2000130A000EC
:100098002008A205220803195728FE30A0002008CE
:1000A8003E00C50559283E00451475082000A000EB
:1000B8002008A2000830A0002008A2052208031981
:1000C800672897146B28FD30A0002008970575084D
:1000D800A0002008A2000430A0002008A2052208E1
:1000E80003197C28FD30A00020083E00C5057E28A5
:1000F8003E00C51475082000A0002008A20020308A
:10010800A0002008A205220803198C28171590289A
:10011800FB30A000200897057508A0002008A20061
:100128001030A0002008A20522080319A128FB30DE
:10013800A00020083E00C505A3283E004515750807
:100148002000A0002008A2008030A0002008A205FE
:1001580022080319B1289715B528F730A000200800
:1001680097057508A0002008A2004030A0002008CC
:10017800A20522080319C628F730A00020083E006F
:10018800C505C8283E00C51520002108A000200884
:10019800A2000230A0002008A20522080319D628D0
:1001A8001716DA28EF30A000200897052108A000CC
:1001B8002008A2000130A0002008A2052208031987
:1001C800EB28EF30A00020083E00C505ED283E00D2
:1001D800451620002108A0002008A2000830A00031
:1001E8002008A20522080319FB289816FF28DF30EB
:1001F800A000200898052108A0002008A2000430CB
:10020800A0002008A205220803191029DF30A00049
:1002180020083E00D00512293E00D01620002108F3
:10022800A0002008A2002030A0002008A205220873
:100238000319202918172429BF30A0002008980581
:100248002108A0002008A2001030A0002008A20564
:10025800220803193529BF30A00020083E00D00528
:1002680037293E00501720002108A0002008A200CE
:100278008030A0002008A2052208031945299817F4
:1002880049297F30A000200898052108A0002008EF
:10029800A2004030A0002008A205220803195A290C
:1002A8007F30A00020083E00D00508003E00D0178F
:1002B80008002000A100A201A30151307502031C0F
:1002C8006729A201A20AAB307502031C4D2AA301BB
:1002D800A30A4D2A220803197E2917142308031993
:1002E8007B29FE30A00020083E00C50508003E001E
:1002F80045140800FE302000A00020089705FE30B5
:10030800A00020083E00C5050800200022080319A7
:100318009A299714230803199729FD30A00020086B
:100328003E00C50508003E00C5140800FD30200049
:10033800A00020089705FD30A00020083E00C50554
:100348000800200022080319B629171523080319E5
:10035800B329FB30A00020083E00C50508003E0078
:1003680045150800FB302000A00020089705FB3049
:10037800A00020083E00C505080020002208031937
:10038800D229971523080319CF29F730A000200890
:100398003E00C50508003E00C5150800F7302000DE
:1003A800A00020089705F730A00020083E00C505EA
:1003B8000800200022080319EE291716230803193C
:1003C800EB29EF30A00020083E00C50508003E00DC
:1003D80045160800EF302000A00020089705EF30F0
:1003E800A00020083E00C5050800200022080319C7
:1003F8000A2A981623080319072ADF30A0002008C4
:100408003E00D00508003E00D0160800DF3020006E
:10041800A00020089805DF30A00020083E00D00585
:100428000800200022080319262A18172308031990
:10043800232ABF30A00020083E00D00508003E0057
:1004480050170800BF302000A00020089805BF30D2
:10045800A00020083E00D00508002000220803194B
:10046800422A9817230803193F2A7F30A000200842
:100478003E00D00508003E00D01708007F3020005D
:10048800A000200898057F30A00020083E00D00575
:10049800080020002108840008300402031808001E
:1004A80085310435693E8200080010302000B7000D
:1004B8003708D200D301DC01DD01DE018531942546
:1004C800823105302000B0000030B1008331C023F4
:1004D80082318B170B172000DC01A930840085308E
:1004E8008500003FB700013FB8003808803A803CDB
:1004F800031D802A37085C020318B92A20005C080B
:1005080085315625823120005C35423E86008701C0
:100518002008C03F2108C13F5C35423E8600870164
:10052800403FB700413FB800B836B70CB836B70CF3
:100538003708B9005C08543E8600870139088100F5
:100548000130B7003708DC07A93084008530850002
:10055800003FB700013FB8003808803A803C031DCF
:10056800B72A37085C02031C822A2000DC01A93064
:10057800840085308500003FB700013FB800380887
:10058800803A803C031DCA2A37085C020318282BCE
:1005980020005C0885315625823120005C35423EBA
:1005A800860087012008C03F2108C13F5C08543EEF
:1005B800860087010108B7005C083A3E860087017B
:1005C800370881005C35423E86008701403FB7000E
:1005D800413FB800B836B70CB836B70C3708B90081
:1005E8005C08543E86008701390881005C08543E47
:1005F800860087015C083A3E8400850100080106F0
:100608000319122B5C08543E860087010108B700C5
:100618003708F5005C0881315D2182310130200006
:10062800B7003708DC07A930840085308500003F13
:10063800B700013FB8003808803A803C031D262BDC
:1006480037085C02031CCC2A20005E08803AB700F9
:1006580080303702031D322B02305D02031CB92A99
:100668002000DD01DE015F08B7003708F5006008EB
:10067800803133208231B92A003401340234033402
:100688000434053406340734083409340A340B3486
:100698000C340D340E340F34103411341234133436
:1006A8001434153416341734183419341A341B34E6
:1006B8001C341D341E341F34203421342234233496
:1006C8002434253426342734283429342A342B3446
:1006D8002C342D342E342F343034313432343334F6
:1006E8003434353436343734383439343A343B34A6
:1006F8003C343D343E343F34403441344234433456
:100708004434453446344734483449344A344B3405
:100718004C344D344E344F345034513452345334B5
:100728005434553456345734583459345A345B3465
:100738005C345D345E345F34603461346234633415
:100748006434653466346734683469346A346B34C5
:100758006C346D346E346F34703471347234733475
:100768007434753476347734783479347A347B3425
:100778007C347D347E347F3420003108B600300864
:10078800B500E030B20032083E00C5051F30200039
:10079800B20032083E00D00520003608803AB20088
:1007A80080303202031DDA2B01303502031C122C73
:1007B80020003608A1003508A0009030A2000130C2
:1007C800A30085311F25833120002108B4002008AB
:1007D800B3001F30B20032089704E030B20032088C
:1007E80098043408A7003308A600843122248331F2
:1007F800E0302000B200320897051F30B2003208FE
:1008080098053408A7003308A600843122248331D0
:10081800FF302000B507FF30B63DD02B1F30200039
:10082800B20032089704E030B2003208980464300D
:10083800A6000030A70084312224080000302000E0
:10084800AF000030AE000030AD000030AC0027082B
:10085800A1002608A000AB30840085308500003F49
:10086800A200013FA30085311F2584312000200804
:10087800A8002108A900890D893B8909AA00AB00B5
:100888002708803AF50080307502031D4D2C013091
:100898002602031C080000302000AF000030AE0024
:1008A8000030AD000030AC002F08803AF5002B086E
:1008B800803A7502031D6A2C2A082E02031D6A2C31
:1008C80029082D02031D6A2C28082C020318080089
:1008D8000130AC070030AD3D0030AE3D0030AF3DDB
:1008E800582CF100B22CF601F60A08007808F0003E
:1008F8007008F7002000DD01DE019D2C20005D0856
:100908005E04031D8C2C7808F0007008E000902C21
:100918007808F0007008DF000130DD070030DE3DA8
:100928009D2C7608003A0319822C013A03197A2C77
:10093800822CF60108007708703E86008701233074
:10094800873D010823008C000130F0007008F7078C
:1009580080307702031C0800F70108007108003A8C
:100968000319772C013A03199F2C033A0319952C84
:10097800013A0319C02CC02C0800200096019701E9
:100988009801FF309100E03092001F309300E7306B
:100998003E00CE001F30C300FF30B800E501C4019F
:1009A800B901CF01BA01C501D00100308B1B01305C
:1009B800F5008B1355303D008F00AA308F000F10C3
:1009C8004608E0391338C6004508E0391438C50030
:1009D80015303E00A3001430A40055303D008F00B0
:1009E800AA308F000F14751CFB2C8B1708008B1373
:1009F80008005530F2007208F3002E000F10230093
:100A08000C08F2007208F3000F1D112D8F1A111F28
:100A18000F2D03301A2D01301A2D8F1A152D003085
:100A28001A2D7308F2007208F80002308431752418
:100A38002300101608002000A401A501201C282D61
:100A48002208A4072308A53D0130A235A30D890B70
:100A5800292D0130A136A00C890B2E2D2008210448
:100A6800031D222D2508A1002408A000080021004C
:100A78009401033095009601990197011F30980061
:100A88009A019B019C0102309D009E0122008D016C
:100A98008E018F0190019101920193018430210010
:100AA80093000800F500750821009E0093171313A2
:100AB80013140000210013185E2D0D082000A1005A
:100AC80021000C082000A000080081316E29813126
:100AD80089298131A5298131C1298131DD298131D6
:100AE800F9298231152A8231312A803023008F007A
:100AF8002630900091019201FE308E0020308D004A
:100B08002E000F1019140800FE0012001E000130FC
:100B1800FE020030FF3B7F087E0403190034892D54
:100B28008431C12485318531A025853185317925E8
:100B3800853185313B250800603031008D008F01FB
:100B480091010630930092010800083400342034E3
:040B580000345534DC
:020000040001F9
:0A000E00EC3FFF3F9F3FFF1FFF3F45
:00000001FF
